:020000040800F2
:1000000000000220651B0008791A00087F1A00080A
:10001000851A00088B1A0008911A000800000000D9
:10002000000000000000000000000000B1730008A4
:10003000971A00080000000001760008A51A0008C1
:10004000B51B0008B51B0008B51B0008B51B000850
:10005000B51B0008B51B0008B51B0008B51B000840
:10006000B51B0008B51B0008B51B0008B51B000830
:10007000B51B0008B51B0008B51B0008B51B000820
:10008000B51B0008B51B0008B51B0008B51B000810
:10009000B51B0008B51B0008B51B0008B51B000800
:1000A000B51B0008B51B0008B51B0008B51B0008F0
:1000B000B51B0008B51B0008B51B0008B51B0008E0
:1000C000B51B0008B51B0008B51B0008B51B0008D0
:1000D000B51B0008B51B0008B51B0008C11A0008B5
:1000E000B51B0008B51B0008B51B0008B51B0008B0
:1000F000B51B0008B51B0008B51B0008B51B0008A0
:10010000B51B0008B51B0008B51B0008B51B00088F
:10011000B51B0008B51B0008B51B0008B51B00087F
:10012000B51B0008B51B0008B51B0008B51B00086F
:10013000B51B0008B51B0008B51B0008B51B00085F
:10014000B51B0008B51B0008B51B0008B51B00084F
:10015000B51B0008B51B0008B51B0008B51B00083F
:10016000B51B0008B51B0008B51B0008B51B00082F
:10017000B51B0008B51B0008B51B000800000000F7
:08018000B51B0008B51B0008C7
:1001900010B5054C237833B9044B13B10448AFF3C1
:1001A00000800123237010BD7400002000000000B7
:1001B0000089000808B5034B1BB103490348AFF39E
:1001C000008008BD000000007800002000890008C1
:1001D00001F0FF01102A2BDB10F0070F08D010F8F8
:1001E000013B013A8B422DD010F0070F42B3F6D1FC
:1001F000F0B441EA012141EA014122F007047FF015
:1002000000070023F0E80256083C85EA010586EA6B
:10021000010685FA47F5A3FA87F586FA47F6A5FAA7
:1002200087F68EB9EED1F0BC01F0FF0102F00702B3
:1002300032B110F8013B013A83EA010313B1F8D15E
:100240000020704701387047002D06BF354603383F
:10025000073815F0010F07D1013015F4807F02BF78
:10026000013015F4C03F0130F0BC0138704700BFC9
:1002700053B94AB9002908BF00281CBF4FF0FF310D
:100280004FF0FF3000F074B9ADF1080C6DE904CE09
:1002900000F006F8DDF804E0DDE9022304B0704761
:1002A0002DE9F047089D04468E46002B4DD18A4229
:1002B000944669D9B2FA82F252B101FA02F3C2F15C
:1002C000200120FA01F10CFA02FC41EA030E9440ED
:1002D0004FEA1C48210CBEFBF8F61FFA8CF708FB0E
:1002E00016E341EA034306FB07F199420AD91CEBE6
:1002F000030306F1FF3080F01F81994240F21C8118
:10030000023E63445B1AA4B2B3FBF8F008FB10335F
:1003100044EA034400FB07F7A7420AD91CEB040494
:1003200000F1FF3380F00A81A74240F20781644464
:10033000023840EA0640E41B00261DB1D4400023E9
:10034000C5E900433146BDE8F0878B4209D9002D4D
:1003500000F0EF800026C5E9000130463146BDE8D7
:10036000F087B3FA83F6002E4AD18B4202D3824241
:1003700000F2F980841A61EB030301209E46002DF0
:10038000E0D0C5E9004EDDE702B9FFDEB2FA82F245
:10039000002A40F09280A1EB0C014FEA1C471FFAA3
:1003A0008CFE0126200CB1FBF7F307FB131140EA8A
:1003B00001410EFB03F0884208D91CEB010103F157
:1003C000FF3802D2884200F2CB804346091AA4B219
:1003D000B1FBF7F007FB101144EA01440EFB00FEED
:1003E000A64508D91CEB040400F1FF3102D2A64552
:1003F00000F2BB800846A4EB0E0440EA03409CE7F1
:10040000C6F12007B34022FA07FC4CEA030C20FA9D
:1004100007F401FA06F31C43F9404FEA1C4900FABD
:1004200006F3B1FBF9F8200C1FFA8CFE09FB18113A
:1004300040EA014108FB0EF0884202FA06F20BD9AD
:100440001CEB010108F1FF3A80F08880884240F2FD
:100450008580A8F102086144091AA4B2B1FBF9F041
:1004600009FB101144EA014100FB0EFE8E4508D93C
:100470001CEB010100F1FF346CD28E456AD90238C1
:10048000614440EA0840A0FB0294A1EB0E01A142A6
:10049000C846A64656D353D05DB1B3EB080261EB14
:1004A0000E0101FA07F722FA06F3F1401F43C5E9EE
:1004B000007100263146BDE8F087C2F12003D84024
:1004C0000CFA02FC21FA03F3914001434FEA1C4766
:1004D0001FFA8CFEB3FBF7F007FB10360B0C43EA58
:1004E000064300FB0EF69E4204FA02F408D91CEB08
:1004F000030300F1FF382FD29E422DD90238634406
:100500009B1B89B2B3FBF7F607FB163341EA0341A5
:1005100006FB0EF38B4208D91CEB010106F1FF38F4
:1005200016D28B4214D9023E6144C91A46EA0046EB
:1005300038E72E46284605E70646E3E61846F8E67D
:100540004B45A9D2B9EB020864EB0C0E0138A3E7C6
:100550004646EAE7204694E74046D1E7D0467BE7A7
:10056000023B614432E7304609E76444023842E71F
:10057000704700BF80B500AF01F01EFB00F056F8D9
:1005800000F0FCFA00F026FA00F0DCF800F07AF94E
:1005900000F0CCF900F0C8FA00F0A6F807F084FCEF
:1005A00001221449144803F0C0FD04F087FD134AEA
:1005B0000021134804F0CCFD0346124A1360124A8E
:1005C0000021124804F0C4FD0346114A1360114A89
:1005D0000021114804F0BCFD0346104A1360104A84
:1005E0000021104804F0B4FD03460F4A136004F0E4
:1005F00089FDFEE75802002004020020B4890008AB
:10060000B50C000848020020D8890008D50C000865
:100610004C020020FC890008E91400085002002068
:10062000208A0008391500085402002080B594B0D3
:1006300000AF07F1200330220021184607F0F8FC34
:1006400007F10C0300221A605A609A60DA601A619E
:100650000023BB60224B1B6C214A43F08053136480
:100660001F4B1B6C03F08053BB60BB6800237B6097
:100670001C4B1B681B4A43F480431360194B1B68D7
:1006800003F480437B607B6802233B620123FB62AF
:1006900010233B630023BB6307F12003184602F0DD
:1006A00001F80346002B01D000F0EAFF0F23FB60A6
:1006B00000233B6100237B610023BB610023FB61BE
:1006C00007F10C030021184602F064FA0346002BE0
:1006D00001D000F0D5FF00BF5037BD4680BD00BF40
:1006E000003802400070004080B500AF124B134A42
:1006F0001A60114B124A5A600F4B00229A600E4B3F
:100700000022DA600C4B4FF480421A610A4B00223F
:100710005A61094B00229A61074B0022DA61064BAD
:1007200000221A62044801F051FE0346002B01D05A
:1007300000F0A6FF00BF80BD9000002000540040E4
:10074000A086010080B596B000AF07F148030022F3
:100750001A605A609A60DA6007F1400300221A605A
:100760005A6007F1240300221A605A609A60DA6026
:100770001A615A619A613B1D20220021184607F038
:1007800057FC3E4B3E4A1A603C4B4FF4A0725A60F5
:100790003A4B00229A60394B4FF47A72DA60374B49
:1007A00000221A61354B00225A61344B80229A6133
:1007B000324802F0CFFB0346002B01D000F060FF6F
:1007C0004FF48053BB6407F1480319462B4802F0ED
:1007D00027FF0346002B01D000F052FF274802F00C
:1007E00008FC0346002B01D000F04AFF00233B64C5
:1007F00000237B6407F140031946204803F0E8FA20
:100800000346002B01D000F03BFF60237B620023F6
:10081000BB620023FB6200237B630023BB630023D6
:10082000FB6307F124030C221946144802F036FE3C
:100830000346002B01D000F023FF00237B60002340
:10084000BB600023FB6000233B6100237B614FF40E
:100850000053BB6100233B623B1D1946074803F070
:1008600033FB0346002B01D000F00AFF034801F0E0
:1008700079F800BF5837BD4680BD00BFE4000020B6
:100880000000014080B58CB000AF07F10C032422BA
:100890000021184607F0CCFB3B1D00221A605A606D
:1008A000214B4FF080421A601F4B00225A601E4BB2
:1008B00000229A601C4B4FF6FF72DA601A4B00223E
:1008C0001A61194B00229A610323FB6000233B61EC
:1008D00001237B610023BB610A23FB6100233B6290
:1008E00001237B620023BB620A23FB6207F10C0336
:1008F00019460D4802F09EFC0346002B01D000F083
:10090000BFFE00237B600023BB603B1D19460648E9
:1009100003F05EFA0346002B01D000F0B1FE00BFE9
:100920003037BD4680BD00BF2C01002080B58CB0A3
:1009300000AF07F10C0324220021184607F078FBD2
:100940003B1D00221A605A60204B214A1A601F4B3F
:1009500000225A601D4B00229A601C4B4FF6FF721A
:10096000DA601A4B00221A61184B00229A610323A5
:10097000FB6000233B6101237B610023BB610A23F1
:10098000FB6100233B6201237B620023BB620A23DD
:10099000FB6207F10C0319460C4802F04BFC0346BE
:1009A000002B01D000F06CFE00237B600023BB60B5
:1009B0003B1D1946054803F00BFA0346002B01D0F6
:1009C00000F05EFE00BF3037BD4680BD74010020E0
:1009D0000004004080B596B000AF07F14803002244
:1009E0001A605A609A60DA6007F1400300221A60C8
:1009F0005A6007F1240300221A605A609A60DA6094
:100A00001A615A619A613B1D20220021184607F0A5
:100A10000FFB434B434A1A60414B00225A60404B44
:100A200000229A603E4B41F61F42DA603C4B0022A6
:100A30001A613B4B00225A61394B00229A613848B7
:100A400002F088FA0346002B01D000F019FE4FF4A3
:100A50008053BB6407F148031946314802F0E0FDBA
:100A60000346002B01D000F00BFE2D4802F0C1FA26
:100A70000346002B01D000F003FE00233B6400235B
:100A80007B6407F140031946254803F0A1F90346AA
:100A9000002B01D000F0F4FD60237B620023BB62D9
:100AA0000023FB6200233B6300237B630023BB63C3
:100AB0000023FB6307F1240300221946184802F0C3
:100AC000EDFC0346002B01D000F0DAFD07F1240312
:100AD00004221946124802F0E1FC0346002B01D023
:100AE00000F0CEFD00237B600023BB600023FB6091
:100AF00000233B6100237B614FF40053BB61002363
:100B00003B623B1D1946064803F0DEF90346002B05
:100B100001D000F0B5FD00BF5837BD4680BD00BF15
:100B2000BC0100200004014080B500AF114B124A07
:100B30001A60104B4FF4E1325A600E4B00229A605B
:100B40000C4B0022DA600B4B00221A61094B0C227D
:100B50005A61084B00229A61064B0022DA6105486F
:100B600003F004FA0346002B01D000F089FD00BF1A
:100B700080BD00BF040200200048004080B58AB05C
:100B800000AF07F1140300221A605A609A60DA601D
:100B90001A6100233B61384B1B6B374A43F010034B
:100BA0001363354B1B6B03F010033B613B69002360
:100BB000FB60314B1B6B304A43F0010313632E4B38
:100BC0001B6B03F00103FB60FB680023BB602A4B37
:100BD0001B6B294A43F004031363274B1B6B03F081
:100BE0000403BB60BB6800237B60234B1B6B224A62
:100BF00043F002031363204B1B6B03F002037B6083
:100C00007B68002240F2E2511C4801F0ABFB00225D
:100C10003C211B4801F0A6FB4FF4BC637B61012320
:100C2000BB610023FB6100233B6207F114031946FB
:100C3000124801F0FBF93C237B610123BB610023D7
:100C4000FB6102233B6207F1140319460C4801F0D3
:100C5000EDF902237B610123BB610023FB610223C9
:100C60003B6207F114031946044801F0DFF900BFA5
:100C70002837BD4680BD00BF00380240001002404A
:100C80000000024080B582B000AF78604FF6FF737D
:100C90000A220649064803F0B6F90122034904482E
:100CA00003F043FA00BF0837BD4680BD580200205C
:100CB0000402002080B582B000AF78604FF48061FC
:100CC000034801F068FB4FF4FA6004F0D3FAF5E74B
:100CD0000010024090B591B000AF7860B423FB875C
:100CE0000023BB87722387F83A300021B74802F00F
:100CF000D9F90421B54802F0D5F90C21B44802F025
:100D0000D1F9B34B1B684A221A64012387F83930A2
:100D1000B04B07F120040FCB84E80F0000233B63A6
:100D20000023FB6007F1100300221A605A609A60EA
:100D3000DA606123FB724FF47A7004F09BFA07F1DA
:100D40003403A54AA549184607F07AF9A24B0022B8
:100D50001A7000220421A24801F004FB012208219C
:100D60009F4801F0FFFA002220219D4801F0FAFA85
:100D7000012210219A4801F0F5FA97F83A304FF421
:100D80007A7202FB03F3974A82FB0312D210DB173D
:100D9000D31AFB8697F83430623B182B00F20D8291
:100DA00001A252F823F000BFA11100086911000848
:100DB000BB110008C1100008BB110008BB110008DE
:100DC000BB110008BB110008BB110008BB110008D3
:100DD000BB1100080D0E0008BB110008BB11000874
:100DE000BB11000851100008BB110008BB1100081E
:100DF000B90F0008BB110008BB11000889100008DA
:100E000031110008BB110008F910000807F10C03AC
:100E10007549184607F014F907F10C031A46282102
:100E20000A2007F00FF86A4B1B6837221A64C820A3
:100E300004F020FA01220421694801F093FA00220B
:100E40000821674801F08EFA01222021644801F050
:100E500089FA00221021624801F084FA40F6C41396
:100E6000BB875A4B1B68BA8F5A63584B1B68BA8FA3
:100E70009A634FF4AF6004F0FDF90023BB87534B36
:100E80001B68BA8F5A63514B1B68BA8F9A63504BD9
:100E90001B684A221A64C82004F0ECF940F6C41317
:100EA000BB874A4B1B68BA8F5A63484B1B68BA8F83
:100EB0009A6340F6640004F0DDF90023BB87434BDE
:100EC0001B68BA8F5A63414B1B68BA8F9A63404BB9
:100ED0001B6837221A64C82004F0CCF900220421D0
:100EE0003F4801F03FFA012208213D4801F03AFA5B
:100EF000002220213A4801F035FA01221021384819
:100F000001F030FA40F6C413BB87304B1B68BA8F30
:100F10005A632E4B1B68BA8F9A6340F2DC5004F080
:100F2000A9F90023BB87294B1B68BA8F5A63274B4B
:100F30001B68BA8F9A63264B1B684A221A643220B8
:100F400004F098F940F6C413BB87204B1B68BA8F96
:100F50005A631E4B1B68BA8F9A634FF4967004F065
:100F600089F90023BB87194B1B68BA8F5A63174B4B
:100F70001B68BA8F9A63164B1B6862221A64C820DA
:100F800004F078F940F6C413BB87104B1B68BA8F86
:100F90005A630E4B1B68BA8F9A6340F2DC5004F020
:100FA00069F90023BB8707F10B014FF6FF7301229C
:100FB0000E4803F028F804E1FB8FB3F5B47F17D196
:100FC00000F0C6F900F0C4F9FBE000BFBC0100204E
:100FD000E4000020648900085802002048890008C5
:100FE00000000240310CC3304C890008040200208C
:100FF000FB8FFA2B04D900F0ABF9FB8FB43BFB87D6
:10100000FB8F87F83B3097F83B30B32B06D900F0C5
:101010009FF997F83B304C3387F83B3097F83B30DB
:10102000592B08D900F0F8F800F0F6F897F83B30A3
:101030005A3B87F83B3097F83B302C2B40F2C0806E
:1010400000F0EAF897F83B302D3B87F83B30B7E0EB
:101050006D4B1B6837221A64002204216B4801F093
:1010600081F901220821694801F07CF90022202140
:10107000664801F077F901221021644801F072F905
:1010800040F6C413BB879CE05F4B1B684A221A647E
:10109000002204215D4801F065F9012208215B4826
:1010A00001F060F900222021584801F05BF901228B
:1010B0001021564801F056F940F6C413BB8780E072
:1010C000514B1B6864221A64002204214F4801F02E
:1010D00049F9012208214D4801F044F9002220215C
:1010E0004A4801F03FF901221021484801F03AF93D
:1010F00040F6C413BB8764E0434B1B6837221A6475
:1011000001220421414801F02DF9002208213F4825
:1011100001F028F9012220213C4801F023F90022A6
:1011200010213A4801F01EF940F6C413BB8748E08D
:10113000354B1B684A221A6401220421334801F00E
:1011400011F900220821314801F00CF90122202177
:101150002E4801F007F9002210212C4801F002F975
:1011600040F6C413BB872CE0274B1B6869221A6426
:1011700001220421254801F0F5F800220821234826
:1011800001F0F0F801222021204801F0EBF80022C4
:1011900010211E4801F0E6F840F6C413BB8710E0AA
:1011A00007F10C031A49184606F04AFF07F10C0331
:1011B0001A4628210A2006F045FE0023BB8700E0DE
:1011C00000BFC82004F056F8124B1B68BA8F5A6350
:1011D000104B1B68BA8F9A63FB8E184604F04AF8CE
:1011E000094B1B684A221A640023BB87094B1B6802
:1011F000BA8F5A63074B1B68BA8F9A634FF47A70A1
:1012000004F038F897E500BFE40000200000024039
:1012100058890008BC01002080B584B000AF786018
:101220000023FB81474B1B6837221A64C82004F057
:1012300021F801220421444801F094F800220821F9
:10124000414801F08FF8012220213F4801F08AF83F
:10125000002210213C4801F085F840F6C413FB81C0
:101260003A4B1B68FA895A63384B1B68FA899A63B0
:101270004FF4487003F0FEFF0023FB81334B1B68E3
:10128000FA895A63314B1B68FA899A63C82003F0C4
:10129000F1FF2C4B1B6837221A64C82003F0EAFFC9
:1012A00000220421284801F05DF801220821264887
:1012B00001F058F800222021234801F053F80122C0
:1012C0001021214801F04EF840F6C413FB811F4B5A
:1012D0001B68FA895A631D4B1B68FA899A6340F2AE
:1012E000771003F0C7FF0023FB81184B1B68FA89B6
:1012F0005A63164B1B68FA899A63124B1B68622269
:101300001A64C82003F0B6FF40F6C413FB810F4BEC
:101310001B68FA895A630D4B1B68FA899A6340F27D
:10132000771003F0A7FF0023FB81084B1B68FA89A5
:101330005A63064B1B68FA899A6300BF1037BD4693
:1013400080BD00BFE400002000000240BC0100207E
:1013500080B584B000AF78600023FB815F4B1B68D1
:1013600037221A64C82003F085FF012204215C485B
:1013700000F0F8FF00220821594800F0F3FF012295
:101380002021574800F0EEFF00221021544800F0C1
:10139000E9FF40F6C413FB81524B1B68FA895A637C
:1013A000504B1B68FA899A634FF4B96003F062FFEF
:1013B0000023FB814B4B1B68FA895A63494B1B681E
:1013C000FA899A63454B1B684A221A64C82003F0C5
:1013D00051FF40F6C413FB81424B1B68FA895A63E4
:1013E000404B1B68FA899A63502003F043FF0023A7
:1013F000FB813C4B1B68FA895A633A4B1B68FA899C
:101400009A63364B1B686E221A64C82003F032FFC1
:1014100000220421324800F0A5FF012208213048B3
:1014200000F0A0FF002220212D4800F09BFF0122A8
:1014300010212B4800F096FF40F6C413FB81294B86
:101440001B68FA895A63274B1B68FA899A6340F232
:10145000DC5003F00FFF0023FB81224B1B68FA894D
:101460005A63204B1B68FA899A63012204211C48A5
:1014700000F078FF00220821194800F073FF0122D4
:101480002021174800F06EFF00221021144800F0C0
:1014900069FF124B1B684A221A64C82003F0EAFE57
:1014A00040F6C413FB810F4B1B68FA895A630D4B3E
:1014B0001B68FA899A6340F2417003F0DBFE002357
:1014C000FB81084B1B68FA895A63064B1B68FA8933
:1014D0009A6300BF1037BD4680BD00BFE400002006
:1014E00000000240BC01002090B589B000AF7860D8
:1014F0000E4B07F10C040FCB84E80F000023FB61B7
:1015000007F10C030A4A0B49184606F099FD07F14A
:101510000C031A460A210A2006F094FC06F01EFB72
:101520004FF47A7003F0A6FEEAE700BF6489000872
:10153000580200207889000880B58EB000AF78602E
:101540003C214B4801F01CFF3C214A4801F018FFA8
:10155000474B1B685B6A7B63464B1B685B6AFB629D
:1015600000F090FB02467B6AD31AB3F57A7FF7D975
:101570003F4B1B685B6A3B623E4B1B685B6AFB61CF
:101580003B4B1B681B6803F01003102B10D13A6A09
:101590007B6B9A4204DA7A6B3B6AD31A3B6317E09F
:1015A0007B6BC3F57F43FF333A6A13443B630FE021
:1015B0003A6A7B6B9A4204DD3A6A7B6BD31A3B63CF
:1015C00006E03B6AC3F57F43FF337A6B13443B630A
:1015D000284B1B681B6803F01003102B10D1FA690D
:1015E000FB6A9A4204DAFA6AFB69D31ABB6217E013
:1015F000FB6AC3F57F43FF33FA691344BB620FE014
:10160000FA69FB6A9A4204DDFA69FB6AD31ABB6283
:1016100006E0FB69C3F57F43FF33FA6A1344BB62FC
:1016200007F108033A6B1449184606F009FD07F163
:1016300008031A4614210A2006F004FC07F10803E7
:10164000BA6A0E49184606F0FBFC07F108031A4671
:101650001E210A2006F0F6FB054B1B685B6A7B63C4
:10166000044B1B685B6AFB6200F00CFB786277E757
:101670002C010020740100207C8900088C8900085E
:1016800080B400AF72B600BFFEE7000080B582B044
:1016900000AF00237B60124B5B6C114A43F4804324
:1016A00053640F4B5B6C03F480437B607B680023C7
:1016B0003B600B4B1B6C0A4A43F080531364084B8E
:1016C0001B6C03F080533B603B6800220F216FF0DE
:1016D000010000F0E2FB00BF0837BD4680BD00BF3F
:1016E0000038024080B58AB000AF786007F114037B
:1016F00000221A605A609A60DA601A617B681B687F
:10170000194A93422CD100233B61184B1B6B174A9B
:1017100043F002031363154B1B6B03F002033B61A1
:101720003B694FF440737B611223BB610023FB6173
:1017300003233B6204237B6207F1140319460C4820
:1017400000F074FC0023FB60084B1B6C074A43F459
:1017500000131364054B1B6C03F40013FB60FB6860
:1017600000BF2837BD4680BD00540040003802400D
:101770000004024080B58AB000AF786007F114031E
:1017800000221A605A609A60DA601A617B681B68EE
:10179000234A93420ED100233B61224B5B6C214ACA
:1017A00043F0010353641F4B5B6C03F001033B6187
:1017B0003B6930E07B681B681B4A93422BD10023B6
:1017C000FB60184B5B6C174A43F002035364154BE4
:1017D0005B6C03F00203FB60FB680023BB60114BF2
:1017E0001B6B104A43F0040313630E4B1B6B03F097
:1017F0000403BB60BB68C0237B610223BB61002381
:10180000FB6100233B6203237B6207F1140319464B
:10181000064800F00BFC00BF2837BD4680BD00BF66
:10182000000001400038024000040140000802406E
:1018300080B58CB000AF786007F11C0300221A60FD
:101840005A609A60DA601A617B681B68B3F1804F56
:101850004BD10023BB613F4B1B6C3E4A43F001035D
:1018600013643C4B1B6C03F00103BB61BB69002399
:101870007B61384B1B6B374A43F001031363354BD5
:101880001B6B03F001037B617B6900233B61314BE0
:101890001B6B304A43F0020313632E4B1B6B03F0A8
:1018A00002033B613B694FF40043FB6102233B624F
:1018B00000237B620023BB620123FB6207F11C0350
:1018C0001946254800F0B2FB0823FB6102233B6266
:1018D00000237B620023BB620123FB6207F11C0330
:1018E00019461E4800F0A2FB30E07B681B681C4ACA
:1018F00093422BD10023FB60164B1B6C154A43F01F
:1019000002031364134B1B6C03F00203FB60FB68C0
:101910000023BB600F4B1B6B0E4A43F001031363A4
:101920000C4B1B6B03F00103BB60BB68C023FB6166
:1019300002233B6200237B620023BB620223FB6223
:1019400007F11C031946044800F070FB00BF303754
:10195000BD4680BD00380240000002400004024045
:101960000004004080B588B000AF786007F10C0338
:1019700000221A605A609A60DA601A617B681B68FC
:10198000124A93421ED10023BB60114B1B6B104ABD
:1019900043F0100313630E4B1B6B03F01003BB608B
:1019A000BB684FF48043FB6002233B6100237B61F3
:1019B0000023BB610123FB6107F10C0319460548B5
:1019C00000F034FB00BF2037BD4680BD0000014061
:1019D000003802400010024080B58AB000AF786045
:1019E00007F1140300221A605A609A60DA601A61E3
:1019F0007B681B681D4A934234D100233B611C4B1A
:101A00001B6C1B4A43F480231364194B1B6C03F4B7
:101A100080233B613B690023FB60154B1B6B144A21
:101A200043F004031363124B1B6B03F00403FB60CE
:101A3000FB684FF440637B610223BB610023FB61C1
:101A400003233B6207237B6207F11403194609480D
:101A500000F0ECFA00220521272000F01EFA2720D2
:101A600000F037FA00BF2837BD4680BD004800406F
:101A7000003802400008024080B400AFFEE780B4A6
:101A800000AFFEE780B400AFFEE780B400AFFEE732
:101A900080B400AFFEE780B400AF00BFBD465DF884
:101AA000047B704780B500AF00F0D8F804F0F0FF79
:101AB0000346012B01D005F0D7FD00BF80BD00001B
:101AC00080B500AF024802F061FB00BF80BD00BFDF
:101AD0000402002080B586B000AF7860144A154B30
:101AE000D31A7B617B693B61134B1B68002B02D1CE
:101AF000114B124A1A60104B1A687B6813443A69FA
:101B00009A4207D206F05CFA03460C221A604FF0A4
:101B1000FF3309E0084B1B68FB60074B1A687B68C2
:101B20001344054A1360FB6818461837BD4680BD4C
:101B300000000220000400006C020020D84F0020AA
:101B400080B400AF064BD3F88830054A43F47003E5
:101B5000C2F8883000BFBD465DF8047B704700BF07
:101B600000ED00E0DFF834D00D480E490E4A0023A6
:101B700002E0D458C4500433C4188C42F9D30B4A41
:101B80000B4C002301E013600432A242FBD3FFF7A9
:101B9000D7FF06F01BFAFEF7EDFC704700000220AD
:101BA000000000207400002004950008740000204C
:101BB000D44F0020FEE7000080B500AF0E4B1B683D
:101BC0000D4A43F4007313600B4B1B680A4A43F43D
:101BD00080631360084B1B68074A43F480731360EB
:101BE000032000F04FF90F2000F008F8FFF74EFD3A
:101BF0000023184680BD00BF003C024080B582B083
:101C000000AF7860124B1A68124B1B7819464FF4DC
:101C10007A73B3FBF1F3B2FBF3F3184600F067F904
:101C20000346002B01D001230EE07B680F2B0AD85E
:101C3000002279684FF0FF3000F02FF9064A7B68E8
:101C40001360002300E0012318460837BD4680BD1D
:101C500000000020080000200400002080B400AF35
:101C6000064B1B781A46064B1B681344044A136044
:101C700000BFBD465DF8047B704700BF0800002030
:101C80007002002080B400AF034B1B681846BD46AD
:101C90005DF8047B704700BF7002002080B584B0FF
:101CA00000AF7860FFF7EEFFB8607B68FB60FB6811
:101CB000B3F1FF3F05D00A4B1B781A46FB6813446B
:101CC000FB6000BFFFF7DEFF0246BB68D31AFA686D
:101CD0009A42F7D800BF00BF1037BD4680BD00BF95
:101CE0000800002080B485B000AF78607B6803F006
:101CF0000703FB600C4BDB68BB60BA684FF6FF0361
:101D00001340BB60FB681A02BB68134343F0BF6318
:101D100043F40033BB60044ABB68D36000BF143790
:101D2000BD465DF8047B704700ED00E080B400AF75
:101D3000044BDB681B0A03F007031846BD465DF839
:101D4000047B704700ED00E080B483B000AF034631
:101D5000FB7197F90730002B0BDBFB7903F01F02B7
:101D6000074997F907305B09012000FA02F241F8B0
:101D7000232000BF0C37BD465DF8047B704700BFD1
:101D800000E100E080B483B000AF03463960FB712E
:101D900097F90730002B0ADB3B68DAB20C4997F958
:101DA00007301201D2B20B4483F800230AE03B68EB
:101DB000DAB20849FB7903F00F03043B1201D2B2F7
:101DC0000B441A7600BF0C37BD465DF8047B7047A4
:101DD00000E100E000ED00E080B489B000AFF86001
:101DE000B9607A60FB6803F00703FB61FB69C3F12C
:101DF0000703042B28BF0423BB61FB690433062BB4
:101E000002D9FB69033B00E000237B614FF0FF3206
:101E1000BB6902FA03F3DA43BB681A407B699A4054
:101E20004FF0FF317B6901FA03F3D9437B680B4024
:101E3000134318462437BD465DF8047B7047000005
:101E400080B582B000AF78607B68013BB3F1807FE2
:101E500001D301230FE00A4A7B68013B53600F2145
:101E60004FF0FF30FFF78EFF054B00229A60044BC6
:101E700007221A60002318460837BD4680BD00BF00
:101E800010E000E080B582B000AF78607868FFF7BE
:101E900029FF00BF0837BD4680BD80B586B000AFC2
:101EA0000346B9607A60FB7300237B61FFF73EFF56
:101EB00078617A68B9687869FFF78EFF024697F90A
:101EC0000F3011461846FFF75DFF00BF1837BD46BB
:101ED00080BD80B582B000AF0346FB7197F9073033
:101EE0001846FFF731FF00BF0837BD4680BD80B5FB
:101EF00082B000AF78607868FFF7A2FF034618460B
:101F00000837BD4680BD80B584B000AF78607B687F
:101F10009B6DFB60FFF7B6FEB8607B6893F83530C9
:101F2000DBB2022B08D07B6880225A657B680022D6
:101F300083F83420012352E07B681B681A687B68B1
:101F40001B6822F016021A607B681B685A697B685E
:101F50001B6822F080025A617B681B6C002B03D146
:101F60007B689B6C002B07D07B681B681A687B68BA
:101F70001B6822F008021A607B681B681A687B687D
:101F80001B6822F001021A6013E0FFF77BFE024695
:101F9000BB68D31A052B0CD97B6820225A657B6855
:101FA000032283F835207B68002283F83420032342
:101FB00015E07B681B681B6803F00103002BE4D16C
:101FC0007B68DB6D3F229A40FB689A607B68012248
:101FD00083F835207B68002283F8342000231846DC
:101FE0001037BD4680BD80B483B000AF78607B6899
:101FF00093F83530DBB2022B04D07B6880225A651F
:1020000001230CE07B68052283F835207B681B6880
:102010001A687B681B6822F001021A6000231846C8
:102020000C37BD465DF8047B7047000080B489B072
:1020300000AF7860396000237B6100233B6100239F
:10204000BB610023FB616BE10122FB6902FA03F330
:102050007B613B681B687A6913403B613A697B6925
:102060009A4240F05A813B685B6803F00303012BFE
:1020700005D03B685B6803F00303022B30D17B681B
:102080009B68BB61FB695B00032202FA03F3DB433D
:10209000BA691340BB613B68DA68FB695B0002FA0E
:1020A00003F3BA691343BB617B68BA699A607B68C2
:1020B0005B68BB610122FB6902FA03F3DB43BA6987
:1020C0001340BB613B685B681B0903F00102FB69BD
:1020D00002FA03F3BA691343BB617B68BA695A60B9
:1020E0003B685B6803F00303032B17D07B68DB6856
:1020F000BB61FB695B00032202FA03F3DB43BA69AD
:102100001340BB613B689A68FB695B0002FA03F30A
:10211000BA691343BB617B68BA69DA603B685B6884
:1021200003F00303022B23D1FB69DA087B68083232
:1021300053F82230BB61FB6903F007039B000F22B9
:1021400002FA03F3DB43BA691340BB613B681A69C7
:10215000FB6903F007039B0002FA03F3BA69134318
:10216000BB61FB69DA087B680832B96943F8221061
:102170007B681B68BB61FB695B00032202FA03F307
:10218000DB43BA691340BB613B685B6803F0030241
:10219000FB695B0002FA03F3BA691343BB617B6816
:1021A000BA691A603B685B6803F44033002B00F0A7
:1021B000B4800023FB60604B5B6C5F4A43F4804358
:1021C00053645D4B5B6C03F48043FB60FB685B4ACC
:1021D000FB699B08023352F82330BB61FB6903F0B3
:1021E00003039B000F2202FA03F3DB43BA69134097
:1021F000BB617B68524A93422BD07B68514A934221
:1022000025D07B68504A93421FD07B684F4A934247
:1022100019D07B684E4A934213D07B684D4A934253
:102220000DD07B684C4A934207D07B684B4A93425F
:1022300001D107230EE008230CE006230AE0052362
:1022400008E0042306E0032304E0022302E0012364
:1022500000E00023FA6902F0030292009340BA6999
:102260001343BB613549FB699B080233BA6941F8E6
:1022700023203B4B1B68BB613B69DB43BA691340BE
:10228000BB613B685B6803F48033002B03D0BA6901
:102290003B691343BB61324ABB691360304B5B68D7
:1022A000BB613B69DB43BA691340BB613B685B6858
:1022B00003F40033002B03D0BA693B691343BB61BD
:1022C000274ABB695360264B9B68BB613B69DB4374
:1022D000BA691340BB613B685B6803F48013002B51
:1022E00003D0BA693B691343BB611D4ABB69936064
:1022F0001B4BDB68BB613B69DB43BA691340BB61C5
:102300003B685B6803F40013002B03D0BA693B6998
:102310001343BB61124ABB69D360FB690133FB61A4
:10232000FB690F2B7FF690AE00BF00BF2437BD4680
:102330005DF8047B704700BF003802400038014060
:10234000000002400004024000080240000C02406D
:10235000001002400014024000180240001C02401D
:10236000003C014080B483B000AF78600B467B80B6
:1023700013467B707B78002B03D07A887B689A6148
:1023800003E07B881A047B689A6100BF0C37BD4666
:102390005DF8047B704780B485B000AF78600B4671
:1023A0007B807B685B69FB607A88FB6813401A045A
:1023B000FB68D9437B880B401A437B689A6100BF56
:1023C0001437BD465DF8047B7047000080B584B0CB
:1023D00000AF78607B68002B01D101232BE17B6883
:1023E00093F83D30DBB2002B06D17B68002283F8E6
:1023F0003C207868FFF776F97B68242283F83D203B
:102400007B681B681A687B681B6822F001021A60EF
:102410007B681B681A687B681B6842F400421A607C
:102420007B681B681A687B681B6822F400421A608C
:1024300000F068FDF8607B685B68814A934207D8CA
:10244000FB68804A934294BF01230023DBB206E07D
:10245000FB687D4A934294BF01230023DBB2002B2B
:1024600001D00123E7E0FB68784AA2FB03239B0C21
:10247000BB607B681B685B6823F03F017B681B685F
:10248000BA680A435A607B681B681B6A23F03F01E5
:102490007B685B686A4A934202D8BB68013309E0F3
:1024A000BB684FF4967202FB03F3694AA2FB032355
:1024B0009B0901337A6812680B4313627B681B68BF
:1024C000DB6923F44F4222F0FF027B685B685C49C2
:1024D0008B4219D8FB68591E7B685B685B00B1FBB7
:1024E000F3F3591C40F6FC730B40002B0AD0FB6839
:1024F000591E7B685B685B00B1FBF3F30133C3F3E8
:102500000B0351E004234FE07B689B68002B11D143
:10251000FB68581E7B6859680B465B000B44B0FB98
:10252000F3F30133C3F30B03002B0CBF0123002390
:10253000DBB212E0FB68581E7B6859680B469B00B3
:102540000B4499000B44B0FBF3F30133C3F30B03CB
:10255000002B0CBF01230023DBB2002B01D0012391
:1025600022E07B689B68002B0ED1FB68581E7B68BD
:1025700059680B465B000B44B0FBF3F30133C3F324
:102580000B0343F400430FE0FB68581E7B68596857
:102590000B469B000B4499000B44B0FBF3F3013353
:1025A000C3F30B0343F44043796809681343CB61D9
:1025B0007B681B681B6823F0C0017B68DA697B6855
:1025C0001B6A1A437B681B680A431A607B681B6896
:1025D0009B6823F4034323F0FF037A6811697A6848
:1025E000D26811437A6812680B4393607B681B685A
:1025F000DB6823F0FF017B685A697B689B691A439B
:102600007B681B680A43DA607B681B681A687B6812
:102610001B6842F001021A607B6800221A647B6822
:10262000202283F83D207B6800221A637B68002209
:1026300083F83E20002318461037BD4680BD00BFFA
:10264000A08601007F841E00FF083D0083DE1B433F
:10265000D34D621080B483B000AF064B01221A60E4
:10266000054B1B687B607B6800BF0C37BD465DF87F
:10267000047B704720000E420070004080B483B09D
:1026800000AF064B00221A60054B1B687B607B681D
:1026900000BF0C37BD465DF8047B704720000E423A
:1026A0000070004080B586B000AF78607B68002B7A
:1026B00001D1012367E27B681B6803F00103002B53
:1026C00075D0884B9B6803F00C03042B0CD0854B12
:1026D0009B6803F00C03082B12D1824B5B6803F458
:1026E0008003B3F5800F0BD17E4B1B6803F40033DE
:1026F000002B5BD07B685B68002B57D1012342E243
:102700007B685B68B3F5803F06D1764B1B68754AE2
:1027100043F4803313601DE07B685B68B3F5A02F42
:102720000CD1704B1B686F4A43F4802313606D4BD0
:102730001B686C4A43F4803313600BE0694B1B68E1
:10274000684A23F480331360664B1B68654A23F4A0
:10275000802313607B685B68002B13D0FFF792FA2D
:10276000386108E0FFF78EFA02463B69D31A642B02
:1027700001D9032307E25B4B1B6803F40033002BF2
:10278000F0D014E0FFF77EFA386108E0FFF77AFA3C
:1027900002463B69D31A642B01D90323F3E1514B61
:1027A0001B6803F40033002BF0D100E000BF7B680E
:1027B0001B6803F00203002B63D04A4B9B6803F0B5
:1027C0000C03002B0BD0474B9B6803F00C03082B2A
:1027D0001CD1444B5B6803F48003002B16D1414BA2
:1027E0001B6803F00203002B05D07B68DB68012B1C
:1027F00001D00123C7E13B4B1B6823F0F8027B6843
:102800001B69DB00374913430B603AE07B68DB68E8
:10281000002B20D0344B01221A60FFF733FA3861C5
:1028200008E0FFF72FFA02463B69D31A022B01D9C1
:102830000323A8E12B4B1B6803F00203002BF0D00D
:10284000284B1B6823F0F8027B681B69DB002549D5
:1028500013430B6015E0244B00221A60FFF712FAB5
:10286000386108E0FFF70EFA02463B69D31A022BE3
:1028700001D9032387E11B4B1B6803F00203002BE4
:10288000F0D17B681B6803F00803002B36D07B680F
:102890005B69002B16D0154B01221A60FFF7F2F985
:1028A000386108E0FFF7EEF902463B69D31A022BC4
:1028B00001D9032367E10B4B5B6F03F00203002B8D
:1028C000F0D01BE0094B00221A60FFF7DBF93861FA
:1028D0000EE0FFF7D7F902463B69D31A022B07D95E
:1028E000032350E10038024000004742800E474277
:1028F000884B5B6F03F00203002BEAD17B681B68F7
:1029000003F00403002B00F097800023FB75814B3C
:102910001B6C03F08053002B0FD10023BB607D4B59
:102920001B6C7C4A43F0805313647A4B1B6C03F09E
:102930008053BB60BB680123FB75774B1B6803F4B6
:102940008073002B18D1744B1B68734A43F4807357
:102950001360FFF797F9386108E0FFF793F9024633
:102960003B69D31A022B01D903230CE16A4B1B6884
:1029700003F48073002BF0D07B689B68012B06D199
:10298000644B1B6F634A43F0010313671CE07B68D1
:102990009B68052B0CD15F4B1B6F5E4A43F0040311
:1029A00013675C4B1B6F5B4A43F0010313670BE03B
:1029B000584B1B6F574A23F001031367554B1B6F8E
:1029C000544A23F0040313677B689B68002B15D0DF
:1029D000FFF758F938610AE0FFF754F902463B69FE
:1029E000D31A41F28832934201D90323CBE0494BF9
:1029F0001B6F03F00203002BEED014E0FFF742F947
:102A000038610AE0FFF73EF902463B69D31A41F20A
:102A10008832934201D90323B5E03E4B1B6F03F08C
:102A20000203002BEED1FB7D012B05D1394B1B6C32
:102A3000384A23F0805313647B689B69002B00F0B5
:102A4000A180344B9B6803F00C03082B5CD07B689F
:102A50009B69022B41D1314B00221A60FFF712F91A
:102A6000386108E0FFF70EF902463B69D31A022BE2
:102A700001D9032387E0274B1B6803F00073002B69
:102A8000F0D17B68DA697B681B6A1A437B685B6AF2
:102A90009B011A437B689B6A5B08013B1B041A433A
:102AA0007B68DB6A1B061B4913434B601B4B0122EF
:102AB0001A60FFF7E7F8386108E0FFF7E3F802462D
:102AC0003B69D31A022B01D903235CE0114B1B682D
:102AD00003F00073002BF0D054E0104B00221A607A
:102AE000FFF7D0F8386108E0FFF7CCF802463B6901
:102AF000D31A022B01D9032345E0064B1B6803F0D0
:102B00000073002BF0D13DE07B689B69012B07D15E
:102B1000012338E000380240007000406000474266
:102B20001B4B5B68FB607B689B69012B28D0FB68B3
:102B300003F480027B68DB699A4221D1FB6803F0D1
:102B40003F027B681B6A9A421AD1FA6847F6C07343
:102B500013407A68526A9201934211D1FB6803F4E0
:102B600040327B689B6A5B08013B1B049A4207D199
:102B7000FB6803F070627B68DB6A1B069A4201D037
:102B8000012300E0002318461837BD4680BD00BF72
:102B90000038024080B584B000AF786039607B684F
:102BA000002B01D10123CCE0684B1B6803F0070325
:102BB0003A689A420CD9654B3A68D2B21A70634BA4
:102BC0001B6803F007033A689A4201D00123B8E07A
:102BD0007B681B6803F00203002B20D07B681B6816
:102BE00003F00403002B05D0594B9B68584A43F46B
:102BF000E05393607B681B6803F00803002B05D04B
:102C0000534B9B68524A43F460439360504B9B681C
:102C100023F0F0027B689B684D4913438B607B680F
:102C20001B6803F00103002B44D07B685B68012B19
:102C300007D1474B1B6803F40033002B19D1012344
:102C40007FE07B685B68022B03D07B685B68032BAB
:102C500007D13F4B1B6803F00073002B09D1012300
:102C60006FE03B4B1B6803F00203002B01D10123F3
:102C700067E0374B9B6823F003027B685B6834494D
:102C800013438B60FEF7FEFFF8600AE0FEF7FAFFE1
:102C90000246FB68D31A41F28832934201D90323DA
:102CA0004FE02B4B9B6803F00C027B685B689B003A
:102CB0009A42EBD1254B1B6803F007033A689A420E
:102CC0000CD2224B3A68D2B21A70204B1B6803F028
:102CD00007033A689A4201D0012332E07B681B68FF
:102CE00003F00403002B08D0194B9B6823F4E05237
:102CF0007B68DB68164913438B607B681B6803F0B5
:102D00000803002B09D0124B9B6823F460427B68B8
:102D10001B69DB000E4913438B6000F021F802466B
:102D20000B4B9B681B0903F00F030A49CB5C22FA8B
:102D300003F3094A1360094B1B681846FEF75EFF50
:102D4000002318461037BD4680BD00BF003C02403E
:102D500000380240448A00080000002004000020DF
:102D60002DE9B04F90B000AF00237B630023FB63DD
:102D700000233B630023BB63594B9B6803F00C03A8
:102D8000082B0DD0082B00F2A180002B02D0042BC1
:102D900003D09BE0534BBB639BE0534BBB6398E07A
:102DA0004F4B5B6803F03F037B634D4B5B6803F461
:102DB0008003002B28D04A4B5B689B0900223B62B2
:102DC0007A623B6AC3F308000021474B03FB01F220
:102DD000002300FB03F31344434AA0FB0212FA62F0
:102DE0000A46BA62FA6A1344FB627B6B0022BB613B
:102DF000FA61D7E90623D7E90A01FDF739FA024655
:102E00000B461346FB6353E0354B5B689B0900227E
:102E10003B617A613B69C3F3080A4FF0000B5246ED
:102E20005B464FF000004FF00001590141EAD261CA
:102E3000500102460B46B2EB0A0863EB0B094FF058
:102E400000024FF000034FEA891343EA98634FEA08
:102E50008812B2EB080463EB09054FF000024FF053
:102E60000003EB0043EA5473E20014461D4614EBE2
:102E70000A033B6045EB0B037B604FF000024FF011
:102E80000003D7E9004529468B02214643EA9153C6
:102E900021468A02104619467B6B0022BB60FA600D
:102EA000D7E90223FDF7E4F902460B461346FB631C
:102EB0000B4B5B681B0C03F0030301335B003B63AC
:102EC000FA6B3B6BB2FBF3F3BB6302E0054BBB63F6
:102ED00000BFBB6B18464037BD46BDE8B08F00BF92
:102EE000003802400024F40040787D0180B400AF37
:102EF000034B1B681846BD465DF8047B704700BF56
:102F00000000002080B500AFFFF7F0FF0246054B40
:102F10009B689B0A03F007030349CB5C22FA03F387
:102F2000184680BD00380240548A000880B500AFC2
:102F3000FFF7DCFF0246054B9B685B0B03F00703C2
:102F40000349CB5C22FA03F3184680BD00380240E7
:102F5000548A000880B582B000AF78607B68002B8F
:102F600001D1012341E07B6893F83D30DBB2002BB7
:102F700006D17B68002283F83C207868FEF7FAFBD4
:102F80007B68022283F83D207B681A687B680433E3
:102F90001946104600F00CFC7B68012283F846209D
:102FA0007B68012283F83E207B68012283F83F2062
:102FB0007B68012283F840207B68012283F841204E
:102FC0007B68012283F842207B68012283F843203A
:102FD0007B68012283F844207B68012283F8452026
:102FE0007B68012283F83D20002318460837BD4640
:102FF00080BD80B582B000AF78607B68002B01D1C6
:10300000012341E07B6893F83D30DBB2002B06D111
:103010007B68002283F83C20786800F039F87B68F0
:10302000022283F83D207B681A687B6804331946C6
:10303000104600F0BDFB7B68012283F846207B68C8
:10304000012283F83E207B68012283F83F207B68C1
:10305000012283F840207B68012283F841207B68AD
:10306000012283F842207B68012283F843207B6899
:10307000012283F844207B68012283F845207B6885
:10308000012283F83D20002318460837BD4680BD45
:1030900080B483B000AF786000BF0C37BD465DF8E8
:1030A000047B704780B584B000AF786039603B68BE
:1030B000002B09D17B6893F83E30DBB2012B14BFA3
:1030C00001230023DBB222E03B68042B09D17B689B
:1030D00093F83F30DBB2012B14BF01230023DBB296
:1030E00015E03B68082B09D17B6893F84030DBB2D0
:1030F000012B14BF01230023DBB208E07B6893F8A7
:103100004130DBB2012B14BF01230023DBB2002BC3
:1031100001D001237CE03B68002B04D17B680222B4
:1031200083F83E2013E03B68042B04D17B68022225
:1031300083F83F200BE03B68082B04D17B68022218
:1031400083F8402003E07B68022283F841207B68FB
:103150001B6801223968184600F014FE7B681B6862
:103160002D4A934204D07B681B682C4A934201D1BC
:10317000012300E00023002B07D07B681B685A6CFA
:103180007B681B6842F400425A647B681B68224AD1
:10319000934222D07B681B68B3F1804F1DD07B68BF
:1031A0001B681F4A934218D07B681B681D4A9342D4
:1031B00013D07B681B681C4A93420ED07B681B6847
:1031C000164A934209D07B681B68184A934204D080
:1031D0007B681B68164A934211D17B681B689B6809
:1031E00003F00703FB60FB68062B10D07B681B68AD
:1031F0001A687B681B6842F001021A6007E07B686E
:103200001B681A687B681B6842F001021A60002381
:1032100018461037BD4680BD000001400004014043
:103220000004004000080040000C00400040014045
:103230000018004080B586B000AF786039607B68C8
:10324000002B01D1012397E07B6893F83D30DBB27E
:10325000002B06D17B68002283F83C207868FEF7BB
:10326000E7FA7B68022283F83D207B681B689B6835
:103270007A68126823F4804323F0070393607B6825
:103280001A687B6804331946104600F091FA7B688F
:103290001B689B687B617B681B689B693B617B68E3
:1032A0001B681B6AFB603B681B687A6913437B6180
:1032B0003B6923F4407323F003033B613B689A6846
:1032C0003B689B691B0213433A6913433B613B69AB
:1032D00023F4406323F00C033B613B6923F4704308
:1032E00023F0F0033B613B68DA683B68DB691B0253
:1032F00013433A6913433B613B681B691A013B68FE
:103300001B6A1B0313433A6913433B61FB6823F0B9
:103310002203FB60FB6823F08803FB603B685A686C
:103320003B685B691B011343FA681343FB607B68CE
:103330001B687A699A607B681B683A699A617B6846
:103340001B68FA681A627B68012283F846207B6852
:10335000012283F83E207B68012283F83F207B68AE
:10336000012283F842207B68012283F843207B6896
:10337000012283F83D20002318461837BD4680BD42
:1033800080B584B000AF786039607B6893F83E30D8
:10339000FB737B6893F83F30BB737B6893F84230D4
:1033A0007B737B6893F843303B733B68002B10D1F1
:1033B000FB7B012B02D17B7B012B01D0012369E038
:1033C0007B68022283F83E207B68022283F8422039
:1033D00031E03B68042B10D1BB7B012B02D13B7B3E
:1033E000012B01D0012355E07B68022283F83F20A6
:1033F0007B68022283F843201DE0FB7B012B08D170
:10340000BB7B012B05D17B7B012B02D13B7B012BAD
:1034100001D001233EE07B68022283F83E207B68D6
:10342000022283F83F207B68022283F842207B68D7
:10343000022283F843203B68002B03D03B68042B17
:1034400008D00FE07B681B6801220021184600F0BD
:1034500099FC16E07B681B6801220421184600F0E5
:1034600091FC0EE07B681B6801220021184600F0E9
:1034700089FC7B681B6801220421184600F082FC4D
:1034800000BF7B681B681A687B681B6842F00102FA
:103490001A60002318461037BD4680BD80B586B03F
:1034A00000AFF860B9607A600023FB75FB6893F8A1
:1034B0003C30012B01D10223AEE0FB68012283F8EE
:1034C0003C207B680C2B00F29F8001A252F823F075
:1034D00005350008093600080936000809360008D5
:1034E0004535000809360008093600080936000885
:1034F0008735000809360008093600080936000833
:10350000C7350008FB681B68B968184600F0F0F979
:10351000FB681B689A69FB681B6842F008029A61A5
:10352000FB681B689A69FB681B6822F004029A61B9
:10353000FB681B689969BB681A69FB681B680A43CA
:103540009A6164E0FB681B68B968184600F040FAAD
:10355000FB681B689A69FB681B6842F400629A6109
:10356000FB681B689A69FB681B6822F480629A6199
:10357000FB681B689969BB681B691A02FB681B68BA
:103580000A439A6143E0FB681B68B968184600F07B
:1035900095FAFB681B68DA69FB681B6842F0080251
:1035A000DA61FB681B68DA69FB681B6822F00402B9
:1035B000DA61FB681B68D969BB681A69FB681B681C
:1035C0000A43DA6123E0FB681B68B968184600F01B
:1035D000E9FAFB681B68DA69FB681B6842F4006261
:1035E000DA61FB681B68DA69FB681B6822F4806299
:1035F000DA61FB681B68D969BB681B691A02FB6842
:103600001B680A43DA6102E00123FB7500BFFB6817
:10361000002283F83C20FB7D18461837BD4680BD4C
:1036200080B584B000AF786039600023FB737B689D
:1036300093F83C30012B01D10223B4E07B680122D6
:1036400083F83C207B68022283F83D207B681B685E
:103650009B68BB60BB6823F07703BB60BB6823F447
:103660007F43BB607B681B68BA689A603B681B68D5
:10367000B3F5005F3ED0B3F5005F00F28780B3F58D
:10368000805F00F08680B3F5805F7FD8702B1AD002
:10369000702B7BD8602B50D0602B77D8502B3CD030
:1036A000502B73D8402B58D0402B6FD8302B64D080
:1036B000302B6BD8202B60D0202B67D8002B5CD010
:1036C000102B5AD062E07B6818683B6899683B68A9
:1036D0005A683B68DB6800F035FB7B681B689B68B9
:1036E000BB60BB6843F07703BB607B681B68BA684C
:1036F0009A604FE07B6818683B6899683B685A6835
:103700003B68DB6800F01EFB7B681B689A687B687F
:103710001B6842F480429A603CE07B6818683B6812
:1037200059683B68DB681A4600F092FA7B681B68B0
:103730005021184600F0EBFA2CE07B6818683B68D3
:1037400059683B68DB681A4600F0B1FA7B681B6871
:103750006021184600F0DBFA1CE07B6818683B68C3
:1037600059683B68DB681A4600F072FA7B681B6890
:103770004021184600F0CBFA0CE07B681A683B68E1
:103780001B681946104600F0C2FA03E00123FB73E0
:1037900000E000BF7B68012283F83D207B680022A7
:1037A00083F83C20FB7B18461037BD4680BD0000E7
:1037B00080B485B000AF786039607B681B68FB60BF
:1037C0007B68404A934213D07B68B3F1804F0FD09F
:1037D0007B683D4A93420BD07B683C4A934207D0BA
:1037E0007B683B4A934203D07B683A4A934208D1B4
:1037F000FB6823F07003FB603B685B68FA68134367
:10380000FB607B682F4A93422BD07B68B3F1804FDB
:1038100027D07B682C4A934223D07B682B4A934263
:103820001FD07B682A4A93421BD07B68294A934267
:1038300017D07B68284A934213D07B68274A93426B
:103840000FD07B68264A93420BD07B68254A93426F
:1038500007D07B68244A934203D07B68234A934273
:1038600008D1FB6823F44073FB603B68DB68FA68AF
:103870001343FB60FB6823F080023B685B691343E2
:10388000FB607B68FA681A603B689A687B68DA625A
:103890003B681A687B689A627B680A4A934203D045
:1038A0007B680C4A934203D13B681A697B681A63B0
:1038B0007B6801225A6100BF1437BD465DF8047B66
:1038C000704700BF000001400004004000080040B5
:1038D000000C004000040140004001400044014051
:1038E0000048014000180040001C0040002000403B
:1038F00080B487B000AF786039607B681B6A23F0C2
:1039000001027B681A627B681B6A7B617B685B686B
:103910003B617B689B69FB60FB6823F07003FB6085
:10392000FB6823F00303FB603B681B68FA681343E2
:10393000FB607B6923F002037B613B689B687A69CB
:1039400013437B617B68204A934203D07B681F4A04
:1039500093420CD17B6923F008037B613B68DB68F1
:103960007A6913437B617B6923F004037B617B6885
:10397000154A934203D07B68144A934211D13B69A4
:1039800023F480733B613B6923F400733B613B6824
:103990005B693A6913433B613B689B693A6913432E
:1039A0003B617B683A695A607B68FA689A613B6858
:1039B0005A687B685A637B687A691A6200BF1C3751
:1039C000BD465DF8047B70470000014000040140E3
:1039D00080B487B000AF786039607B681B6A23F0E1
:1039E00010027B681A627B681B6A7B617B685B687C
:1039F0003B617B689B69FB60FB6823F4E043FB60F1
:103A0000FB6823F44073FB603B681B681B02FA6889
:103A10001343FB607B6923F020037B613B689B6859
:103A20001B017A6913437B617B68224A934203D06E
:103A30007B68214A93420DD17B6923F080037B612F
:103A40003B68DB681B017A6913437B617B6923F068
:103A500040037B617B68174A934203D07B68164A18
:103A6000934213D13B6923F480633B613B6923F4A8
:103A700000633B613B685B699B003A6913433B61B0
:103A80003B689B699B003A6913433B617B683A69D9
:103A90005A607B68FA689A613B685A687B689A63E7
:103AA0007B687A691A6200BF1C37BD465DF8047BEB
:103AB000704700BF000001400004014080B487B09F
:103AC00000AF786039607B681B6A23F480727B6882
:103AD0001A627B681B6A7B617B685B683B617B6801
:103AE000DB69FB60FB6823F07003FB60FB6823F07D
:103AF0000303FB603B681B68FA681343FB607B6948
:103B000023F400737B613B689B681B027A69134353
:103B10007B617B68214A934203D07B68204A9342B1
:103B20000DD17B6923F400637B613B68DB681B027A
:103B30007A6913437B617B6923F480637B617B68D3
:103B4000164A934203D07B68154A934213D13B69CE
:103B500023F480533B613B6923F400533B613B6892
:103B60005B691B013A6913433B613B689B691B011D
:103B70003A6913433B617B683A695A607B68FA682B
:103B8000DA613B685A687B68DA637B687A691A6233
:103B900000BF1C37BD465DF8047B70470000014044
:103BA0000004014080B487B000AF786039607B6862
:103BB0001B6A23F480527B681A627B681B6A3B6134
:103BC0007B685B687B617B68DB69FB60FB6823F477
:103BD000E043FB60FB6823F44073FB603B681B68B9
:103BE0001B02FA681343FB603B6923F400533B61FB
:103BF0003B689B681B033A6913433B617B68124A2D
:103C0000934203D07B68114A934209D17B6923F424
:103C100080437B613B685B699B017A6913437B61ED
:103C20007B687A695A607B68FA68DA613B685A682F
:103C30007B681A647B683A691A6200BF1C37BD460C
:103C40005DF8047B704700BF0000014000040140A4
:103C500080B487B000AFF860B9607A60FB681B6A17
:103C60007B61FB681B6A23F00102FB681A62FB6838
:103C70009B693B613B6923F0F0033B617B681B015F
:103C80003A6913433B617B6923F00A037B617A69DC
:103C9000BB6813437B61FB683A699A61FB687A6988
:103CA0001A6200BF1C37BD465DF8047B704780B4C4
:103CB00087B000AFF860B9607A60FB681B6A23F0D8
:103CC0001002FB681A62FB689B697B61FB681B6AD8
:103CD0003B617B6923F470437B617B681B037A69DA
:103CE00013437B613B6923F0A0033B61BB681B016D
:103CF0003A6913433B61FB687A699A61FB683A69E8
:103D00001A6200BF1C37BD465DF8047B704780B463
:103D100085B000AF786039607B689B68FB60FB68AA
:103D200023F07003FB603A68FB68134343F007031A
:103D3000FB607B68FA689A6000BF1437BD465DF887
:103D4000047B704780B487B000AFF860B9607A60D8
:103D50003B60FB689B687B617B6923F47F437B61ED
:103D60003B681A027B681A43BB6813437A691343A2
:103D70007B61FB687A699A6000BF1C37BD465DF8BD
:103D8000047B704780B487B000AFF860B9607A6098
:103D9000BB6803F01F03012202FA03F37B61FB6897
:103DA0001A6A7B69DB431A40FB681A62FB681A6A6D
:103DB000BB6803F01F03796801FA03F31A43FB6839
:103DC0001A6200BF1C37BD465DF8047B70470000D7
:103DD00080B485B000AF786039607B6893F83C3080
:103DE000012B01D102235AE07B68012283F83C2099
:103DF0007B68022283F83D207B681B685B68FB6060
:103E00007B681B689B68BB60FB6823F07003FB60EA
:103E10003B681B68FA681343FB607B681B68FA68A1
:103E20005A607B681B68214A934222D07B681B68DA
:103E3000B3F1804F1DD07B681B681D4A934218D098
:103E40007B681B681B4A934213D07B681B681A4A25
:103E500093420ED07B681B68184A934209D07B6856
:103E60001B68174A934204D07B681B68154A93422B
:103E70000CD1BB6823F08003BB603B685B68BA6809
:103E80001343BB607B681B68BA689A607B68012239
:103E900083F83D207B68002283F83C2000231846ED
:103EA0001437BD465DF8047B704700BF0000014039
:103EB0000004004000080040000C004000040140E5
:103EC000004001400018004080B485B000AF786029
:103ED00039600023FB607B6893F83C30012B01D1F3
:103EE00002233DE07B68012283F83C20FB6823F03D
:103EF000FF023B68DB681343FB60FB6823F44072FE
:103F00003B689B681343FB60FB6823F480623B685B
:103F10005B681343FB60FB6823F400623B681B682B
:103F20001343FB60FB6823F480523B681B69134317
:103F3000FB60FB6823F400523B685B691343FB6042
:103F4000FB6823F480423B68DB691343FB607B68BA
:103F50001B68FA685A647B68002283F83C200023BF
:103F600018461437BD465DF8047B704780B582B0B3
:103F700000AF78607B68002B01D101233FE07B68B4
:103F800093F83D30DBB2002B06D17B68002283F82A
:103F90003C207868FDF720FD7B68242283F83D20D3
:103FA0007B681B68DA687B681B6822F40052DA6061
:103FB000786800F0DBFD7B681B681A697B681B680A
:103FC00022F490421A617B681B685A697B681B68FF
:103FD00022F02A025A617B681B68DA687B681B68DA
:103FE00042F40052DA607B6800221A647B68202267
:103FF00083F83D207B68202283F83E20002318466A
:104000000837BD4680BD80B58AB002AFF860B960A0
:104010003B601346FB8000237B61FB6893F83D30D7
:10402000DBB2202B7CD1BB68002B02D0FB88002B9D
:1040300001D1012375E0FB6893F83C30012B01D1DD
:1040400002236EE0FB68012283F83C20FB6800221B
:104050001A64FB68212283F83D20FDF713FE786186
:10406000FB68FA889A84FB68FA88DA84FB689B68A4
:10407000B3F5805F08D1FB681B69002B04D10023D6
:10408000FB61BB68BB6103E0BB68FB610023BB61F4
:10409000FB68002283F83C202AE03B6800937B69A0
:1040A00000228021F86800F01FFB0346002B01D09E
:1040B000032336E0FB69002B0BD1BB691B881A4632
:1040C000FB681B68C2F308025A60BB690233BB611C
:1040D00007E0FB691A78FB681B685A60FB690133CB
:1040E000FB61FB68DB8C9BB2013B9AB2FB68DA8414
:1040F000FB68DB8C9BB2002BCFD13B6800937B69C4
:1041000000224021F86800F0EFFA0346002B01D0AE
:10411000032306E0FB68202283F83D20002300E013
:10412000022318462037BD4680BD80B584B000AF5D
:10413000F860B9601346FB80FB6893F83E30DBB251
:10414000202B1DD1BB68002B02D0FB88002B01D196
:10415000012316E0FB6893F83C30012B01D10223C8
:104160000FE0FB68012283F83C20FB6800221A6301
:10417000FB881A46B968F86800F024FB034600E0A3
:10418000022318461037BD4680BD000080B5BAB086
:1041900000AF78607B681B681B68C7F8E4307B68F9
:1041A0001B68DB68C7F8E0307B681B685B69C7F891
:1041B000DC300023C7F8D8300023C7F8D430D7F854
:1041C000E43003F00F03C7F8D830D7F8D830002B0D
:1041D0000FD1D7F8E43003F02003002B09D0D7F833
:1041E000E03003F02003002B03D0786800F003FCDC
:1041F00056E2D7F8D830002B00F0DE80D7F8DC305C
:1042000003F00103002B06D1D7F8E03003F49073DC
:10421000002B00F0D180D7F8E43003F00103002B2D
:104220000BD0D7F8E03003F48073002B05D07B6807
:104230001B6C43F001027B681A64D7F8E43003F08A
:104240000403002B0BD0D7F8DC3003F00103002B64
:1042500005D07B681B6C43F002027B681A64D7F8B8
:10426000E43003F00203002B0BD0D7F8DC3003F06E
:104270000103002B05D07B681B6C43F004027B68B4
:104280001A64D7F8E43003F00803002B11D0D7F8F4
:10429000E03003F02003002B05D1D7F8DC3003F029
:1042A0000103002B05D07B681B6C43F008027B6880
:1042B0001A647B681B6C002B00F0ED81D7F8E430AA
:1042C00003F02003002B08D0D7F8E03003F02003E0
:1042D000002B02D0786800F08EFB7B681B685B695E
:1042E00003F04003402B0CBF01230023DBB2C7F8CF
:1042F000D4307B681B6C03F00803002B03D1D7F884
:10430000D430002B4FD0786800F096FA7B681B6899
:104310005B6903F04003402B41D17B681B68143379
:10432000C7F89C30D7F89C3053E8003FC7F8983066
:10433000D7F8983023F04003C7F8D0307B681B686B
:104340001433D7F8D020C7F8A820C7F8A430D7F87E
:10435000A410D7F8A82041E80023C7F8A030D7F868
:10436000A030002BD9D17B689B6B002B13D07B68CE
:104370009B6B7D4A1A657B689B6B1846FDF733FE85
:104380000346002B16D07B689B6B1B6D7A68926B83
:10439000104698470EE0786800F090F90AE07868D7
:1043A00000F08CF906E0786800F088F97B6800225C
:1043B0001A6470E100BF6EE17B681B6B012B40F05B
:1043C0004A81D7F8E43003F01003002B00F043815A
:1043D000D7F8E03003F01003002B00F03C810023FD
:1043E000BB607B681B681B68BB607B681B685B6885
:1043F000BB60BB687B681B685B6903F04003402BB4
:1044000040F0B4807B689B6B1B685B68A7F8BE308C
:10441000B7F8BE30002B00F040817B689B8DB7F869
:10442000BE209A4280F039817B68B7F8BE20DA85D9
:104430007B689B6BDB69B3F5807F00F088807B68CD
:104440001B680C33C7F88830D7F8883053E8003F32
:10445000C7F88430D7F8843023F48073C7F8B830B5
:104460007B681B680C33D7F8B820C7F89420C7F8CE
:104470009030D7F89010D7F8942041E80023C7F87F
:104480008C30D7F88C30002BD9D17B681B68143363
:104490007B677B6F53E8003F3B673B6F23F0010373
:1044A000C7F8B4307B681B681433D7F8B420C7F85A
:1044B0008020FB67F96FD7F8802041E80023BB67B5
:1044C000BB6F002BE1D17B681B6814333B663B6EEE
:1044D00053E8003FFB65FB6D23F04003C7F8B030A5
:1044E0007B681B681433D7F8B020FA66BB66B96ED8
:1044F000FA6E41E800237B667B6E002BE3D17B687C
:10450000202283F83E207B6800221A637B681B68A8
:104510000C33FB64FB6C53E8003FBB64BB6C23F0C3
:104520001003C7F8AC307B681B680C33D7F8AC209D
:10453000BA657B65796DBA6D41E800233B653B6DDB
:10454000002BE3D17B689B6B1846FDF7DCFC7B6896
:104550009A8D7B68DB8D9BB2D31A9BB21946786823
:1045600000F0B6F899E000BFFF4800087B689A8D1C
:104570007B68DB8D9BB2D31AA7F8CE307B68DB8DCE
:104580009BB2002B00F08B80B7F8CE30002B00F0F0
:1045900086807B681B680C33BB63BB6B53E8003FB2
:1045A0007B637B6B23F49073C7F8C8307B681B6810
:1045B0000C33D7F8C8207A643B64396C7A6C41E8D4
:1045C0000023FB63FB6B002BE3D17B681B68143378
:1045D0007B627B6A53E8003F3B623B6A23F0010346
:1045E000C7F8C4307B681B681433D7F8C4203A631B
:1045F000FB62F96A3A6B41E80023BB62BB6A002B9D
:10460000E3D17B68202283F83E207B6800221A6376
:104610007B681B680C333B613B6953E8003FFB60E0
:10462000FB6823F01003C7F8C0307B681B680C33AD
:10463000D7F8C020FA61BB61B969FA6941E8002383
:104640007B617B69002BE3D1B7F8CE3019467868DF
:1046500000F03EF823E0D7F8E43003F08003002BAD
:1046600009D0D7F8E03003F08003002B03D078683E
:1046700000F059F914E0D7F8E43003F04003002BC0
:104680000ED0D7F8E03003F04003002B08D0786854
:1046900000F099F904E000BF02E000BF00E000BFB5
:1046A000E837BD4680BD00BF80B483B000AF7860FE
:1046B00000BF0C37BD465DF8047B704780B483B003
:1046C00000AF786000BF0C37BD465DF8047B7047D3
:1046D00080B483B000AF78600B467B8000BF0C379E
:1046E000BD465DF8047B704780B590B000AFF860C0
:1046F000B9603B601346FB7150E0BB6CB3F1FF3F08
:104700004CD0BB6C002B07D0FDF7BCFA02463B68CF
:10471000D31ABA6C9A4241D2FB681B680C33BB6255
:10472000BB6A53E8003F7B627B6A23F4D073FB6370
:10473000FB681B680C33FA6B7A633B63396B7A6BEB
:1047400041E80023FB62FB6A002BE5D1FB681B6894
:1047500014337B617B6953E8003F3B613B6923F085
:104760000103BB63FB681B681433BA6B3A62FB61DD
:10477000F9693A6A41E80023BB61BB69002BE5D1C6
:10478000FB68202283F83D20FB68202283F83E202E
:10479000FB68002283F83C2003230FE0FB681B68C2
:1047A0001A68BB681340BA689A420CBF0123002301
:1047B000DBB21A46FB799A429FD000231846403755
:1047C000BD4680BD80B485B000AFF860B9601346C7
:1047D000FB80FB68BA689A62FB68FA889A85FB6876
:1047E000FA88DA85FB6800221A64FB68222283F8C3
:1047F0003E20FB68002283F83C20FB681B68DA68D7
:10480000FB681B6842F48072DA60FB681B685A69B7
:10481000FB681B6842F001025A61FB681B68DA689A
:10482000FB681B6842F02002DA6000231846143748
:10483000BD465DF8047B704780B495B000AF7860EA
:104840007B681B680C337B637B6B53E8003F3B63E7
:104850003B6B23F49073FB647B681B680C33FA6C2E
:104860003A64FB63F96B3A6C41E80023BB63BB6BB2
:10487000002BE5D17B681B6814333B623B6A53E82D
:10488000003FFB61FB6923F00103BB647B681B688D
:104890001433BA6CFA62BB62B96AFA6A41E800235F
:1048A0007B627B6A002BE5D17B681B6B012B19D1E6
:1048B0007B681B680C33FB60FB6853E8003FBB6000
:1048C000BB6823F010037B647B681B680C337A6C35
:1048D000BA617B617969BA6941E800233B613B6950
:1048E000002BE5D17B68202283F83E207B680022E4
:1048F0001A6300BF5437BD465DF8047B704780B52E
:1049000084B000AF78607B689B6BFB60FB68002223
:10491000DA85FB680022DA84F868FFF7CFFE00BF73
:104920001037BD4680BD80B485B000AF78607B682D
:1049300093F83D30DBB2212B3ED17B689B68B3F509
:10494000805F14D17B681B69002B10D17B681B6AC8
:10495000FB60FB681B881A467B681B68C2F3080271
:104960005A607B681B6A9A1C7B681A6208E07B6845
:104970001B6A591C7A6811621A787B681B685A6036
:104980007B68DB8C9BB2013B9BB27A681946D18471
:10499000002B0FD17B681B68DA687B681B6822F0EC
:1049A0008002DA607B681B68DA687B681B6842F00B
:1049B0004002DA60002300E0022318461437BD46A7
:1049C0005DF8047B704780B582B000AF78607B688B
:1049D0001B68DA687B681B6822F04002DA607B683B
:1049E000202283F83D207868FFF75EFE00231846FA
:1049F0000837BD4680BD80B58CB000AF78607B685D
:104A000093F83E30DBB2222B40F0AB807B689B6892
:104A1000B3F5805F17D17B681B69002B13D100238E
:104A2000FB627B689B6ABB627B681B685B689BB2AE
:104A3000C3F308039AB2BB6A1A807B689B6A9A1C0C
:104A40007B689A6226E07B689B6AFB620023BB62FC
:104A50007B689B68B3F5805F07D07B689B68002B01
:104A60000AD17B681B69002B06D17B681B685B68D9
:104A7000DAB2FB6A1A7008E07B681B685B68DBB21D
:104A800003F07F03DAB2FB6A1A707B689B6A5A1CD8
:104A90007B689A627B68DB8D9BB2013B9BB27A6834
:104AA0001946D185002B5AD17B681B68DA687B6870
:104AB0001B6822F02002DA607B681B68DA687B687A
:104AC0001B6822F48072DA607B681B685A697B6815
:104AD0001B6822F001025A617B68202283F83E2085
:104AE0007B681B6B012B35D17B6800221A637B68C6
:104AF0001B680C337B617B6953E8003F3B613B697A
:104B000023F010037B627B681B680C337A6A3A627D
:104B1000FB61F9693A6A41E80023BB61BB69002B7C
:104B2000E5D17B681B681B6803F01003102B0AD1CA
:104B30000023FB607B681B681B68FB607B681B684D
:104B40005B68FB60FB687B689B8D19467868FFF7A4
:104B5000BFFD02E07868FCF795F8002302E000232F
:104B600000E0022318463037BD4680BD2DE9B04F26
:104B7000C0B000AFC7F8F400D7F8F4301B681B6969
:104B800023F44050D7F8F430D968D7F8F4301A68D5
:104B900040EA01031361D7F8F4309A68D7F8F4308B
:104BA0001B691A43D7F8F4305B691A43D7F8F4301D
:104BB000DB691343C7F8F830D7F8F4301B68DB68BB
:104BC00023F4164121F00C01D7F8F4301A68D7F815
:104BD000F8300B43D360D7F8F4301B685B6923F4DB
:104BE0004070D7F8F4309969D7F8F4301A6840EA81
:104BF00001035361D7F8F4301A688F4B9A4205D0FD
:104C0000D7F8F4301A688D4B9A4204D1FEF78EF92A
:104C1000C7F8FC0003E0FEF775F9C7F8FC00D7F809
:104C2000F430DB69B3F5004F40F00C81D7F8FC306D
:104C30000022C7F8E830C7F8EC20D7E93A45224609
:104C40002B469118B9655B41FB65D7E916232146D0
:104C500012EB0108294643EB01094FF000024FF027
:104C600000034FEAC90343EA58734FEAC80290466B
:104C70009946234618EB0303C7F8E0302B4649EB6F
:104C80000303C7F8E430D7F8F4305B680022C7F8B4
:104C9000D830C7F8DC20D7E936120B46DB183B6565
:104CA000134642EB03037B65D7E91423D7E93801A8
:104CB000FBF7DEFA02460B46614BA3FB02235B09BE
:104CC0001C01D7F8FC300022C7F8D030C7F8D42038
:104CD000D7E9348942464B469118B9645B41FB647D
:104CE000D7E91223414612EB010A494643EB010B77
:104CF0004FF000024FF000034FEACB0343EA5A7330
:104D00004FEACA0292469B4643461AEB0303C7F892
:104D1000C8304B464BEB0303C7F8CC30D7F8F43020
:104D20005B680022C7F8C030C7F8C420D7E930124A
:104D30000B46DB183B64134642EB03037B64D7E965
:104D40001023D7E93201FBF793FA02460B461146CE
:104D50003B4BA3FB01235B09642202FB03F3CB1A49
:104D6000DB0003F13202364BA3FB02235B095B003D
:104D700003F4F8731C44D7F8FC300022C7F8B830AD
:104D8000C7F8BC20D7E92E8942464B469118B96333
:104D90005B41FB63D7E90E2341465118396349460D
:104DA0004B417B634FF000024FF00003D7E90CAB9F
:104DB0005946CB00514643EA51735146CA0010464A
:104DC0001946034642469B18C7F8B0304B460A4680
:104DD00042EB0303C7F8B430D7F8F4305B68002225
:104DE000C7F8A830C7F8AC20D7E92A120B46DB1861
:104DF000BB62134642EB0303FB62D7E90A23D7E900
:104E00002C01FBF735FA02460B460D4BA3FB0213B0
:104E10005B09642101FB03F3D31ADB003233084A38
:104E2000A2FB03235B0903F00702D7F8F4301B68E9
:104E300022449A6005E100BF0010014000140140C7
:104E40001F85EB51D7F8FC300022C7F8A030C7F817
:104E5000A420D7E9288942464B46911839625B4124
:104E60007B62D7E9082341465418494643EB0105C4
:104E70004FF000024FF00003EB0043EA5473E200EE
:104E800014461D464346E318C7F898304B4645EB99
:104E90000303C7F89C30D7F8F4305B680022C7F8EA
:104EA0009030C7F894204FF000024FF00003D7E98C
:104EB000244529468B00214643EA917321468A0006
:104EC000D7E92601FBF7D4F902460B46604BA3FB5A
:104ED00002235B091C01D7F8FC300022C7F8883098
:104EE000C7F88C20D7E9228942464B469118B96110
:104EF0005B41FB61D7E906234146511839614946B8
:104F00004B417B614FF000024FF00003D7E904AB47
:104F10005946CB00514643EA51735146CA001046E8
:104F20001946034642469B18C7F880304B460A464E
:104F300042EB0303C7F88430D7F8F4305B680022F3
:104F4000BB67FA674FF000024FF00003D7E91E89F4
:104F500049468B00414643EA917341468A00D7E9AE
:104F60002001FBF785F902460B46394BA3FB0213E0
:104F70005B09642101FB03F3D31A1B013233344A6A
:104F8000A2FB03235B0903F0F0031C44D7F8FC30B9
:104F900000223B677A67D7E91C8942464B46911845
:104FA000B9605B41FB60D7E9022341465118396083
:104FB00049464B417B604FF000024FF00003D7E9B8
:104FC00000AB5946CB00514643EA51735146CA00E3
:104FD00010461946034642469B18BB664B460A4696
:104FE00042EB0303FB66D7F8F4305B6800223B66B4
:104FF0007A664FF000024FF00003D7E9188949465E
:105000008B00414643EA917341468A00D7E91A0171
:10501000FBF72EF902460B460D4BA3FB02135B096F
:10502000642101FB03F3D31A1B013233084AA2FBAC
:1050300003235B0903F00F02D7F8F4301B68224406
:105040009A6000BF07F58077BD46BDE8B08F00BF0E
:105050001F85EB5180B483B000AF03463960FB710C
:1050600097F90730002B0ADB3B68DAB20C4997F955
:1050700007301201D2B20B4483F800230AE03B68E8
:10508000DAB20849FB7903F00F03043B1201D2B2F4
:105090000B441A7600BF0C37BD465DF8047B7047A1
:1050A00000E100E000ED00E080B500AF00216FF00E
:1050B0000400FFF7CFFF00BF80BD000080B483B0C5
:1050C00000AFEFF305833B603B68002B03D06FF02C
:1050D00005037B600CE00A4B1B68002B05D1084BD5
:1050E00001221A6000237B6002E04FF0FF337B60F7
:1050F0007B6818460C37BD465DF8047B704700BFDF
:105100007402002080B582B000AFEFF305833B60EE
:105110003B68002B03D06FF005037B6010E00B4B66
:105120001B68012B09D1FFF7BFFF084B02221A6051
:1051300001F066F800237B6002E04FF0FF337B60F4
:105140007B6818460837BD4680BD00BF740200204A
:1051500080B58EB004AFF860B9607A6000233B611F
:10516000EFF305837B617B69002B7ED1FB68002B0D
:105170007BD080233B621823FB6100237B624FF0CE
:10518000FF33BB617B68002B45D07B681B68002B1D
:1051900002D07B681B687B627B689B69002B02D016
:1051A0007B689B69FB61FB69002B08D0FB69382B8E
:1051B00005D87B685B6803F00103002B01D0002356
:1051C00054E07B685B69002B03D07B685B699B08BC
:1051D0003B627B689B68002B0ED07B68DB685B2B97
:1051E0000AD97B681B69002B06D07B685B69002BA2
:1051F00002D00123BB6110E07B689B68002B0CD1BF
:105200007B68DB68002B08D17B681B69002B04D10D
:105210000023BB6101E00023BB61BB69012B10D1FE
:105220007B681B697A68926802920193FB6900931C
:10523000BB683A6A796AF86800F00CFE03463B6185
:1052400013E0BB69002B10D13B6A9AB207F110033F
:105250000193FB690093BB68796AF86800F057FE18
:105260000346012B01D000233B613B6918462837D8
:10527000BD4680BD80B584B000AF7860EFF3058394
:10528000BB60BB68002B03D06FF00503FB6007E039
:105290000023FB607B68002B02D0786800F07CFF65
:1052A000FB6818461037BD4680BD000080B485B04D
:1052B00000AFF860B9607A60FB68074A1A60BB68A3
:1052C000064A1A607B6880221A6000BF1437BD4608
:1052D0005DF8047B704700BF78020020D4020020F4
:1052E00080B485B000AFF860B9607A60FB68074AA7
:1052F0001A60BB68064A1A607B684FF480721A60B5
:1053000000BF1437BD465DF8047B7047D40400200D
:105310003005002080B483B000AF78607B6803F173
:1053200008027B685A607B684FF0FF329A607B68A6
:1053300003F108027B68DA607B6803F108027B688E
:105340001A617B6800221A6000BF0C37BD465DF809
:10535000047B704780B483B000AF78607B68002224
:105360001A6100BF0C37BD465DF8047B704780B4FE
:1053700085B000AF786039607B685B68FB603B6834
:10538000FA685A60FB689A683B689A60FB689B6899
:105390003A685A60FB683A689A603B687A681A61B2
:1053A0007B681B685A1C7B681A6000BF1437BD46B7
:1053B0005DF8047B704780B485B000AF78603960D9
:1053C0003B681B68BB60BB68B3F1FF3F03D17B68E0
:1053D0001B69FB600CE07B680833FB6002E0FB6844
:1053E0005B68FB60FB685B681B68BA689A42F6D230
:1053F000FB685A683B685A603B685B683A689A6029
:105400003B68FA689A60FB683A685A603B687A6859
:105410001A617B681B685A1C7B681A6000BF1437CE
:10542000BD465DF8047B704780B485B000AF7860FE
:105430007B681B69FB607B685B687A6892689A602E
:105440007B689B687A6852685A60FB685B687A6818
:105450009A4203D17B689A68FB685A607B68002295
:105460001A61FB681B685A1EFB681A60FB681B68A0
:1054700018461437BD465DF8047B704780B584B08C
:1054800000AF786039607B68FB60FB68002B0AD155
:105490004FF0500383F31188BFF36F8FBFF34F8F2B
:1054A000BB6000BFFEE702F04DF8FB681A68FB68BE
:1054B000DB6BF968096C01FB03F31A44FB689A6023
:1054C000FB6800229A63FB681A68FB685A60FB68F5
:1054D0001A68FB68DB6B013BF968096C01FB03F39D
:1054E0001A44FB68DA60FB68FF2283F84420FB68FB
:1054F000FF2283F845203B68002B14D1FB681B6911
:10550000002B1AD0FB681033184601F003F903464C
:10551000002B12D00C4B4FF080521A60BFF34F8F0C
:10552000BFF36F8F09E0FB6810331846FFF7F2FEF8
:10553000FB6824331846FFF7EDFE02F033F8012331
:1055400018461037BD4680BD04ED00E080B58EB032
:1055500002AFF860B9607A603B60FB68002B0AD14B
:105560004FF0500383F31188BFF36F8FBFF34F8F5A
:10557000BB6200BFFEE73B68002B0AD14FF050032F
:1055800083F31188BFF36F8FBFF34F8F7B6200BF30
:10559000FEE77B68002B02D0BB68002B01D0012303
:1055A00000E00023002B0AD14FF0500383F3118851
:1055B000BFF36F8FBFF34F8F3B6200BFFEE77B6887
:1055C000002B02D1BB68002B01D1012300E0002396
:1055D000002B0AD14FF0500383F31188BFF36F8F74
:1055E000BFF34F8FFB6100BFFEE750237B617B69F8
:1055F000502B0AD04FF0500383F31188BFF36F8F05
:10560000BFF34F8FBB6100BFFEE77B693B68FB6266
:10561000FB6A002B0DD0FB6A012283F8462097F825
:105620003820FB6A009313467A68B968F86800F07E
:1056300005F8FB6A18463037BD4680BD80B584B09A
:1056400000AFF860B9607A60FB70BB68002B03D1D3
:10565000BB69BA691A6002E0BB697A681A60BB6903
:10566000FA68DA63BB69BA681A640121B869FFF79E
:1056700005FFBB69FA7883F84C2000BF1037BD46A0
:1056800080BD000080B58EB000AFF860B9607A6070
:105690003B6000237B63FB683B633B6B002B0AD1C1
:1056A0004FF0500383F31188BFF36F8FBFF34F8F19
:1056B000BB6200BFFEE7BB68002B03D13B6B1B6CDA
:1056C000002B01D1012300E00023002B0AD14FF071
:1056D000500383F31188BFF36F8FBFF34F8F7B624B
:1056E00000BFFEE73B68022B03D13B6BDB6B012B5A
:1056F00001D1012300E00023002B0AD14FF0500319
:1057000083F31188BFF36F8FBFF34F8F3B6200BFEE
:10571000FEE701F0BDF90346002B02D17B68002BA8
:1057200001D1012300E00023002B0AD14FF05003E8
:1057300083F31188BFF36F8FBFF34F8FFB6100BFFF
:10574000FEE701F0FFFE3B6B9A6B3B6BDB6B9A4213
:1057500002D33B68022B29D13A68B968386B00F054
:105760000BFAF8623B6B5B6A002B10D03B6B243367
:10577000184600F0CFFF0346002B13D03F4B4FF0ED
:1057800080521A60BFF34F8FBFF36F8F0AE0FB6A3E
:10579000002B07D0394B4FF080521A60BFF34F8F68
:1057A000BFF36F8F01F0FEFE012363E07B68002BE7
:1057B00003D101F0F7FE00235CE07B6B002B06D1E8
:1057C00007F11403184601F009F801237B6301F087
:1057D000E9FE00F07BFD01F0B5FE3B6B93F8443031
:1057E0005BB2B3F1FF3F03D13B6B002283F844204F
:1057F0003B6B93F845305BB2B3F1FF3F03D13B6B9A
:10580000002283F8452001F0CDFE3A1D07F1140374
:105810001146184600F0F8FF0346002B24D1386BE0
:1058200000F0A2FA0346002B18D03B6B10337A68C5
:105830001146184600F01EFF386B00F02DFA00F0FC
:1058400053FD0346002B7FF47CAF0C4B4FF080528E
:105850001A60BFF34F8FBFF36F8F72E7386B00F0A2
:105860001BFA00F041FD6CE7386B00F015FA00F010
:105870003BFD002318463837BD4680BD04ED00E0EF
:1058800080B590B000AFF860B9607A603B60FB68AB
:10589000BB63BB6B002B0AD14FF0500383F311881D
:1058A000BFF36F8FBFF34F8FBB6200BFFEE7BB68D4
:1058B000002B03D1BB6B1B6C002B01D1012300E03B
:1058C0000023002B0AD14FF0500383F31188BFF35C
:1058D0006F8FBFF34F8F7B6200BFFEE73B68022BE9
:1058E00003D1BB6BDB6B012B01D1012300E0002353
:1058F000002B0AD14FF0500383F31188BFF36F8F51
:10590000BFF34F8F3B6200BFFEE701F0FDFEEFF3F8
:1059100011824FF0500383F31188BFF36F8FBFF3F1
:105920004F8FFA61BB61FB697B63BB6B9A6BBB6B8F
:10593000DB6B9A4202D33B68022B2FD1BB6B93F8EF
:10594000453087F83330BB6B9B6BFB623A68B968B4
:10595000B86B00F011F997F93330B3F1FF3F12D172
:10596000BB6B5B6A002B16D0BB6B2433184600F070
:10597000D1FE0346002B0ED07B68002B0BD07B683A
:1059800001221A6007E097F833300133DBB25AB2D4
:10599000BB6B83F845200123FB6301E00023FB631D
:1059A0007B6B7B617B6983F3118800BFFB6B1846BF
:1059B0004037BD4680BD000080B58CB000AFF860B8
:1059C000B9607A600023FB62FB68BB62BB6A002B94
:1059D0000AD14FF0500383F31188BFF36F8FBFF3E9
:1059E0004F8F3B6200BFFEE7BB68002B03D1BB6A51
:1059F0001B6C002B01D1012300E00023002B0AD1F6
:105A00004FF0500383F31188BFF36F8FBFF34F8FB5
:105A1000FB6100BFFEE701F03BF80346002B02D11B
:105A20007B68002B01D1012300E00023002B0AD169
:105A30004FF0500383F31188BFF36F8FBFF34F8F85
:105A4000BB6100BFFEE701F07DFDBB6A9B6B7B6223
:105A50007B6A002B1FD0B968B86A00F0F7F87B6A40
:105A60005A1EBB6A9A63BB6A1B69002B0FD0BB6AC4
:105A70001033184600F04EFE0346002B07D03D4B76
:105A80004FF080521A60BFF34F8FBFF36F8F01F05A
:105A900089FD012369E07B68002B03D101F082FDC1
:105AA000002362E0FB6A002B06D107F110031846C1
:105AB00000F094FE0123FB6201F074FD00F006FC8F
:105AC00001F040FDBB6A93F844305BB2B3F1FF3F95
:105AD00003D1BB6A002283F84420BB6A93F84530A7
